:100000000A128A11FC2FFF1B0D2883137F188317F8
:100010000008840A0319FF0A080000308A00040857
:10002000840A82070034013400340A340034643412
:100030000034E834033410342734483465346134F0
:100040007234743462346534613474343A34003454
:10005000423450344D343A3420342534753400342D
:10098E004130831203139F008030831603139F00A0
:10099E00831203131F140800F4007408031DDA2CCD
:1009AE007208803EDC2C7208C03EF3007308F5001E
:1009BE0075080A128A11EE250800730883120313B4
:1009CE00FF00720884000A128A1103200A128A118B
:1009DE00003A03190800730883120313FF0072080C
:1009EE0084000A128A1103200A128A110A128A112D
:1009FE0053260A128A110130F2070318F30AE42C67
:100A0E00F400C530F2007208831203139F057408B8
:100A1E00F20002300310F20DFF3E031D112D0310E4
:100A2E00720DF30073089F042130F200F20B1D2D9E
:100A3E00831203131F151F19222D1E08F100831692
:100A4E0003131E08F0000800780879040319582DC6
:100A5E00FD01FD0AF91B3F2D01300310F80DF90DB4
:100A6E00FF3E031D342D0130FC007C08FD07312DA7
:100A7E0079087B02031D452D78087A02031C4D2D43
:100A8E007808FA027908031CFB03FB0201300310FD
:100A9E00F90CF80CFF3E031D4E2D0130FD02031D17
:100AAE003F2D7B08F9007A08F8000800F501F601E1
:100ABE00700871040319942DF701F70AF11B732DB9
:100ACE0001300310F00DF10DFF3E031D682D0130B6
:100ADE00F4007408F707652D01300310F50DF60DBF
:100AEE00FF3E031D742D71087302031D802D7008C7
:100AFE007202031C892D7008F2027108031CF303A5
:100B0E00F302751401300310F10CF00CFF3E031DBF
:100B1E008A2D0130F702031D732D7608F10075083A
:100B2E00F00008008316031388016230F30065306D
:100B3E00F200F20BA02DF30BA02DA52D02300A1200
:100B4E008A11EE250A128A110D30F300FB30F200E5
:100B5E00F20BAF2DF30BAF2DB42D28300A128A11E4
:100B6E00EE250A128A110730F3007D30F200F20BE7
:100B7E00BE2DF30BBE2D0C300A128A11EE250A1271
:100B8E008A110730F3007D30F200F20BCC2DF30BFF
:100B9E00CC2D06300A128A11EE250A128A11073060
:100BAE00F3007D30F200F20BDA2DF30BDA2D01306B
:100BBE000A128A11EE250A128A110D30F300FB304B
:100BCE00F200F20BE82DF30BE82DED2D0800F100ED
:100BDE00831203130811F11FF82D831203138817C4
:100BEE00FB2D831203138813711F012E831203131F
:100BFE000817042E831203130813F11E0A2E8312F4
:100C0E00031388160D2E831203138812711E132ED2
:100C1E00831203130816162E831203130812881557
:100C2E00182E192E0000831203138811A630F0001F
:100C3E00F00B1F2E0000F11D282E831203138817B0
:100C4E002B2E831203138813711D312E831203135F
:100C5E000817342E831203130813F11C3A2E831235
:100C6E00031388163D2E831203138812711C432E14
:100C7E00831203130816462E8312031308128815C7
:100C8E00482E492E0000831203138811A630F0005F
:100C9E00F00B4F2E00000800F1008312031308150D
:100CAE00F11F5D2E831203138817602E8312031318
:100CBE008813711F662E831203130817692E831271
:100CCE0003130813F11E6F2E831203138816722E50
:100CDE00831203138812711E782E831203130816C3
:100CEE007B2E83120313081288157D2E7E2E000094
:100CFE00831203138811A630F000F00B842E00002F
:100D0E00F11D8D2E831203138817902E8312031359
:100D1E008813711D962E831203130817992E8312B2
:100D2E0003130813F11C9F2E831203138816A22E91
:100D3E00831203138812711CA82E83120313081634
:100D4E00AB2E8312031308128815AD2EAE2E0000A3
:100D5E00831203138811A630F000F00BB42E00009E
:100D6E0008000A128A1199250A128A110A128A118A
:100D7E00C7240A128A11033083120313AF008A307C
:100D8E00AE005530AD00AD0BCA2EAE0BCA2EAF0B5A
:100D9E00CA2E00300A128A1107250A128A1171080A
:100DAE0083120313C1007008C0000A30F000003037
:100DBE00F1004108F3004008F2000A128A115D2585
:100DCE000A128A11710883120313C3007008C2003D
:100DDE0001300A128A11EE250A128A110D30831281
:100DEE000313AE00FB30AD00AD0BFB2EAE0BFB2E96
:100DFE00F20100300A128A11D3240A128A110B3022
:100E0E00F2008030F3000A128A11E4240A128A11C9
:100E1E00F20101300A128A11D3240A128A111630F5
:100E2E0083120313AD002D08A0004308A200420850
:100E3E00A10030300A128A113F270A128A1130306F
:100E4E00F2000030F3000A128A11E4240A128A1109
:100E5E001A3083120313AF005E30AE006D30AD005A
:100E6E00AD0B372FAE0B372FAF0B372F3E2FD02EAC
:100E7E0083120313AB002130A3002308A700013017
:100E8E00A007FF30200784000A128A110D200A12D3
:100E9E008A11A3002308AC002C080319F72F253064
:100EAE002C060319662F2C08A3002B088400230898
:100EBE00831380000130A3002308AB07462FA60141
:100ECE006D2FC030A3002308A6047F2F0130A0078A
:100EDE00FF30200784000A128A110D200A128A118F
:100EEE00AC00003A0319F72F753A0319682F462FF5
:100EFE002708840083130008A800840A0008A900AC
:100F0E000230A3002308A707AC01AC0A05302C065B
:100F1E000319B22F2C08A3002307013E84000A12E6
:100F2E008A110D200A128A11A4000A128A110D20AC
:100F3E000A128A11A50025082902031DA82F2408CC
:100F4E002802031CB22F0130A3002308AC07053082
:100F5E002C06031D912F2C08A3002308AA00FF3096
:100F6E00A3002308AA072A0A0319462F0A30F800FD
:100F7E000030F9002A08A3002307013E84000A125C
:100F8E008A110D200A128A11F0000A128A110D2000
:100F9E000A128A11F1002908F3002808F2000A1239
:100FAE008A115D250A128A117108FB007008FA0079
:100FBE000A128A112B250A128A117808303E8312E2
:100FCE000313A4002408AC002C08A3002B088400F3
:100FDE002308831380000130A3002308AB07B62F2C
:100FEE002B08840083138001080083010A128A11E2
:020FFE00B82E0B
:02400E007A3FF7
:00000001FF
